:080AAB0041021A0041021B0088
:0300230002085B75
:10085B00C0E0C083C082C0D075D00830981690021B
:10086B001BE0FF04F0741A2FF582E43401F583E5E5
:10087B0099F0C298309902C299D0D0D082D083D04F
:02088B00E03259
:1007E2007F0612034A1209AC120B02120003D2AFA7
:1007F200900013E07002A3E06005439080800353F1
:10080200907F900117E07002A3E060054390408062
:0F081200035390BF120ABEEF60D612002680D1AA
:030000000202B049
:1002B000787FE4F6D8FD9000007FFF7E03E4F0A392
:0A02C000DFFCDEFA7581270203055A
:040B0200E4F58E2266
:1009E500EF4E6016758CC1758A7FD28C308DFDC235
:0B09F5008CC28DEF1F70E91E80E6220F
:100A0000EF4E6016758CFF758AF5D28C308DFDC265
:0B0A10008CC28DEF1F70E91E80E622F3
:1000030053B1FE43B20143B10253B2FD53B3FE43B6
:0F001300B40143F408E4F59175F31043F3402270
:040B060053F3BF22C4
:090AE90053F3FCEF540342F32225
:0D0AD00053F47F8FF5E5F430E7FBAFF5221E
:10034A00A2AFE433F527C2AF75C7AA75C755439F55
:10035A0001E52724FF92AFE4F591EF24F960080440
:10036A00700875A638800375A630E4F5A775AF0442
:10037A00A2AF33F527C2AF75C7AA75C75543A40103
:10038A00E52724FF92AFAFAE05A6A2AFE433F52767
:10039A00C2AF75C7AA75C75543A401E52724FF92C2
:1003AA00AFAEAE75C7AA75C7558F8475C7AA75C78C
:1003BA00558E85A2AFE433F527C2AF75C7AA75C7B4
:0A03CA005553A4FEE52724FF92AF6F
:0103D4002206
:1009620053B1BF53B2BF43B18053B27F7598504366
:10097200878053C4F843C42075C6FF75C5F343C4CA
:050982000843A810224B
:080AF200C2998F993099FD2291
:060915008B108A1189120B
:10091B00E4FFFEAB10AA11A9128F828E831206443C
:10092B00600EC299F5993099FD0FBF00010E80E35F
:01093B002299
:080AFA004156522049535000FF
:0A0AB300420117000042001300008A
:1009AC001209627F03120AE97F031204477F0212C5
:0D09BC0004477D027C007F017E0002044D97
:060447007D027C007E0036
:10044D008E108F118C128D13E511640345107013EE
:10045D004390807F1EFE1209E553907F7F1E7E0024
:10046D001209E5E5116402451070134390407F1E9B
:10047D00FE1209E55390BF7F1E7E001209E5E511BE
:10048D006401451070134390207F1EFE1209E55341
:10049D0090DF7F1E7E001209E5E5131513AE127075
:0704AD000215124E70A2229D
:100A1B00EF6006900119E07009EF700A900119E080
:0A0A2B007004439002225390FD2254
:100ABE0090021AE0FF90021BE06F60037F01227F1D
:020ACE00002204
:100A3500120ABEEF60FA90021AE0FF04F0741A2F52
:090A4500F582E43401F583E0FFC1
:010A4E002285
:0408EA00AD07AC06A4
:1008EE00E4FBFAC3EB9DEC6480F8EA648098501642
:1008FE00120A3574152BF58274003AF583EFF00B5E
:06090E00BB00010A80DDC0
:0109140022C0
:0C0ADD00EF4E60044390802253907F2273
:030A4F00FD7F30F8
:100A52008D218B22120AD0AF21120AD0AF22120AA4
:060A6200D0AF23020AD010
:10098700120A35EF642070097F14120AF27F108073
:1009970010900118E004F07006900117E004F07F52
:0409A70015120AF229
:0109AB002229
:0208BE008F1099
:1008C000120A35EF6420700E7F14120AF2AF101274
:1008D0000AF27F108010900118E004F07006900179
:0908E00017E004F07F15120AF282
:0108E90022EC
:10093C00EF247F600F14601024EF601024137010EC
:10094C007F02800E7F01800A7F1280067F53800217
:06095C00E4FF1208BE22B8
:10013500900015E0900000F0900016E0900001F0AE
:10014500900017E0900002F0900018E0900003F096
:10015500900019E0900004F090001AE0900005F07E
:1001650090001BE0900006F090001CE0900007F066
:1001750090001DE0900008F090001FE0FEA3E07CD9
:10018500002400FFEC3E900009F0A3EFF090002161
:10019500E0FEA3E02400FFEC3E90000BF0A3EFF09F
:1001A500900023E0FEA3E02400FFEC3E90000DF05C
:1001B500A3EFF0900026E07E007810C333CE33CE57
:1001C500D8F9FDAC06900025E07E007818C333CE43
:1001D50033CED8F9FFEE4CFCEF4DFD900027E04CF7
:1001E500FEEDFFA3E0FDEF4DFFEE3395E0FDFC9046
:1001F500000F120671900000E0C394E074809480B3
:0E02050040047F0180027F00900119EFF0227B
:10079C007F01120A1B53B3FD43B4021200037F0303
:1007AC00120AE97F147E001209E5E4FF120A1B7F8E
:1007BC00647E00120A007F01120A1B7F327E001237
:1007CC0009E5E4F523FB7D537FAC120A529000132C
:0607DC00E4F0A304F0228A
:100A8100120B067F01120A1B43B30253B4FDE4901B
:060A91000013F0A3F022A7
:1009C9007F047E001208EA900015E0FFA3E0FDA372
:0C09D900E0FBA3E0F523120A520208BE66
:100A68008C1C8D1DAC03EF75F008A42440FFE51C19
:090A7800FDE51DFB8C23020A526E
:04082100AB07AA0671
:10082500E4FFFE120ADDEAFDE4F5237F4C120A52CD
:10083500E4F51CF51D7F017E001209E5051DE51D8A
:100845007002051CC3941EE51C6480948040E67FFD
:06085500017E00020ADD35
:1004B40090000BE0FAA3E0FB64204A700D90011554
:1004C400E0FEA3E0FFEF54F0FF22EB64404A700D1E
:1004D400900115E0FEA3E0FFEF54E0FF2290000B33
:1004E400E0FAA3E0FB64804A700D900115E0FEA3DE
:1004F400E0FFEF54C0FF22E4B50311EAB4010D900C
:100504000115E0FEA3E0FFEF5480FF22900115E007
:05051400FEA3E0FF2240
:10088D008E148F151208EA120A35EF6420700E7F50
:10089D0014120AF2AF15AE14120213801090011843
:1008AD00E004F07006900117E004F07F15120AF2D3
:0108BD002218
:040213008E168F179D
:10021700E4F518F5191204B48E1A8F1BC3E5199566
:1002270017E5166480F8E51864809850721204B4D4
:10023700EF651B7003EE651A600EAF1BAE1A12084E
:10024700211204B48E1A8F1B900115E0FCA3E0FD68
:100257000519E519AE1870020518142415F58274EE
:10026700003EF583E0FBE4FF120A68900115E0FC0D
:10027700A3E0FD0519E519AE187002051814241539
:10028700F58274003EF583E0FB7F01120A68900156
:1002970016E004F07086900115E004F0020223AF27
:0802A7001BAE1A1208217F10A2
:0102AF00222C
:0403D500AD07AC06BE
:1003D900900116E025E0F515900115E033F5148C30
:1003E900168D17C390000EE09D90000DE09C5011F2
:1003F900900118E004F07006900117E004F07F11F5
:1004090022D3E5179420E516940040247D207C0032
:10041900AF15AE1412057E74202515F515E43514B3
:10042900F51474E02517F51774FF3516F51680D104
:0D043900AD17AC16AF15AE1412057E7F1086
:010446002293
:08057E008E188F198C1A8D1BD9
:10058600AF1BAE1A1208EAE4FFFE120ADDE4F51C00
:0D059600F51DC3E51D951BE51C951A50359C
:1005A300E519251DF51FE518351CF51EFDE51FFB97
:1005B3007415251DF5827400351CF583E0F5237F42
:0B05C300C0120A527F2D7E00120A00B9
:1005CE00051DE51D70C4051C80C07F017E00120A4A
:0305DE00DD7F10AE
:0105E10022F7
:1005E200751011120A35EF751200F511120A35EF66
:1005F2002512F512E43511F511120A358F13E513A0
:10060200B44607AF12AE1102088DE5136445702C93
:10061200AF12AE111203D58F10120A35EF6420709B
:10062200097F14120AF2AF108014900118E004F04E
:100632007006900117E004F07F1580027F11120A04
:01064200F2C5
:010643002294
:100A9700AB05AA04EF75F008A42420FFEAFDE4F5EE
:040AA70023020A52CA
:0406A3008E148F150D
:1006A700E4F516F517C3E5179515E5146480F8E525
:1006B70016648098503F900115E0FCA3E0FDE4FF2D
:1006C700120A978F18120AF2900115E0FCA3E0FDB9
:1006D7007F01120A978F19120AF2900116E004F0AF
:1006E7007006900115E004F074022517F517E4353C
:0706F70016F51680B07F101C
:0106FE0022D9
:0406FF008E148F15B1
:10070300900116E025E0F519900115E033F518E4A2
:10071300F516F517C3E5179515E5146480F8E51686
:100723006480985029E5192517F51BE5183516F54A
:100733001AFFEFFDE51BFB7523FF7FA0120A528F03
:100743001C120AF20517E51770CA051680C67F103A
:010753002283
:10051900751011120A35EF751200F511120A35EF2F
:100529002512F512E43511F511120A358F13120A45
:1005390035EF3395E0FEEF64204E6012900118E02C
:1005490004F07006900117E004F07F1580237F14F2
:10055900120AF2E513B44609AF12AE111206A38FBF
:1005690010E513B44509AF12AE111206FF8F10AF93
:0405790010120AF260
:01057D00225B
:10075400120A35EF64206012900118E004F070066C
:10076400900117E004F07F15802A7F14120AF2E446
:10077400F523FB120A4F120AF2E4F5237B01120A55
:100784004F120AF2E4F5237B02FD7F30120A521263
:070794000AF27F10120AF2C5
:01079B00223B
:10002600120A35EF12067D010320005E30006631AC
:10003600009441009A4200A64500AF5000F35100DB
:10004600BE5500F05600DD6000E56100EA6400ED93
:100056007401007500000115E4900117F0A3807487
:10006600120A35EF642070137F14120AF27BFF7AAE
:100076000A79FA1209157F10020131900118E0047D
:10008600F07006900117E004F07F15020131120AA4
:100096003502093C7F147E001208EA1201358057AA
:1000A6007F057E001208EA804E900013E07002A3DE
:1000B600E0700312079C803F120A35900115E4F0A8
:1000C600A3EFF0120A35EFFE900116E02400F0903F
:1000D6000115E03EF08020120A35120A358018120A
:1000E6000A3580130205E20205190209C9E49001E6
:1000F60017F0A3F0120A810209870207549001182B
:10010600E004F07006900117E004F07F15801C9063
:100116000118E004F07006900117E004F0120A35A9
:0E012600EF642070047F1280027F15120AF22F
:0101340022A8
:1002CA000207E2E493A3F8E493A34003F68001F261
:1002DA0008DFF48029E493A3F85407240CC8C33335
:1002EA00C4540F4420C8834004F456800146F6DF04
:1002FA00E4800B0102040810204080900AABE47EDF
:10030A00019360BCA3FF543F30E509541FFEE493F8
:10031A00A360010ECF54C025E060A840B8E493A3BF
:10032A00FAE493A3F8E493A3C8C582C8CAC583CAEA
:10033A00F0A3C8C582C8CAC583CADFE9DEE780BEA2
:010ABD000038
:10064400BB010CE58229F582E5833AF583E022506B
:1006540006E92582F8E622BBFE06E92582F8E222B5
:0D066400E58229F582E5833AF583E49322CF
:0C067100ECF0A3EDF0A3EEF0A3EFF022FC
:10067D00D083D082F8E4937012740193700DA3A30C
:10068D0093F8740193F5828883E473740293686020
:06069D00EFA3A3A380DF20
:00000001FF
