:0400000080311F2804
:100008007E1480312000911E0A280B281D285D08C7
:10001800F03EF000F1012230F13D700886007108D1
:1000280087002300190881000130F00070082000C3
:10003800DD077E10090080312128F030840021304E
:1000480085000030FE000230FF008F319C27803190
:10005800FA01FB0144308400003085001A30FE00AC
:100068000030FF008F319C2780317E1020008631C0
:10007800CF2EF03086002130870001082000A00034
:100088002008C400F0308600213087004131010883
:10009800A0002008C500F0308600213087004231DA
:1000A8000108A0002008C600F03086002130870033
:1000B80043310108A0002008C700F0308600213035
:1000C800870044310108A0002008C800F0308600ED
:1000D8002130870045310108A0002008C900F03010
:1000E80086002130870046310108A0002008CA0098
:1000F800F03086002130870047310108A000200831
:10010800CB00F03086002130870048310108A0007C
:100118002008CC00F0308600213087004B310108E0
:10012800A000A101F0308600213087004A31010883
:10013800A200A3012208A300A20120082207CD00E3
:100148002108233DCE00F0308600213087004D3154
:100158000108A000A101F0308600213087004C3151
:100168000108A200A3012208A300A2012008220777
:10017800CF002108233DD000F030860021308700D1
:100188004F310108A000A101F0308600213087001E
:100198004E310108A200A3012208A300A2012008F1
:1001A8002207D1002108233DD200F03086002130FB
:1001B800870053310108A000A101A201A301F0307A
:1001C80086002130870052310108A400A5012408C7
:1001D800A500A4012408A7002508A8000030A81B32
:1001E800FF30A900AA00F030860021308700513185
:1001F8000108AB00AC01AD01AE011030AB35AC0D60
:10020800AD0DAE0D890B0229F03086002130870034
:1002180050310108AF00B001B101B2011830AF355B
:10022800B00DB10DB20D890B13292F08AB0730089B
:10023800AC3D3108AD3D3208AE3D2B08A7072C0870
:10024800A83D2D08A93D2E08AA3D2708A007280883
:10025800A13D2908A23D2A08A33D2308D60022086B
:10026800D5002108D4002008D300E0304402031848
:100278003E294029013041290030A0002008DB0038
:1002880008008731E62781312000BF003F08C200FF
:10029800002AD701D8018731CB278131372A873106
:1002A800E6278131203A031D5A295B296B2914302E
:1002B8008F31882781310030F3009030F400873186
:1002C8009327813110308F3188278131372A0130C7
:1002D8002000D7070030D83D15308F31882781316D
:1002E800372A8731E627813186319D268131372AA1
:1002F8001430F4000030F5008631FE26813180315B
:100308003D2081318731CB278131372A0530F400F0
:100318000030F5008631FE2681318731CB278131C7
:10032800372A59085A04031D9A299B294F298531D0
:10033800042581314F298731E62781312000BF000C
:10034800C0013F08FA004008FB008731E6278131E9
:100358002000BF00C0013F08C000BF013F08FA07E6
:100368004008FB3D8731CB278131372A8731E62783
:1003780081318731E62781318731CB278131372A8F
:100388008731E62781318731CB278131372A83317D
:100398007A238131372A833119238131372A8631EB
:1003A80069268131372AD701D8018F31A8278131B1
:1003B8004F298331D8238131372A0130D7070030BC
:1003C800D83D15308F3188278131372A0130D7073A
:1003D8000030D83D8731E6278131203A031DF529C1
:1003E800F629FB2912308F3188278131372A1530B9
:1003F8008F3188278131372A4208BF00C001400861
:10040800003A0319082AEA293F08203A0319E12982
:10041800103A03194D29013A03195329703A03195F
:100428007529033A03197C29073A03198A29153AC9
:1004380003199529013A0319D729043A03199F2961
:10044800033A0319D329363A0319BA29013A031989
:10045800C429053A0319CB29103A0319CF29013ABF
:100468000319DD29EA2908002000B101B20185310C
:100478008325823173082000B0007208AF009B2AE0
:10048800853183258231200030087306031D4E2AEA
:100498002F0872060319512A522A612A3008A4002B
:1004A8002F08A3008531FC258231853183258231CF
:1004B80073082000B0007208AF007B08A4007A0817
:1004C800A300F030AC002130AD0031082C078600C5
:1004D80032082D3D87000108AE002E08A500003027
:1004E8008731B027823101302000B1070030B23D9A
:1004F8007B08A4007A08A300F030AC002130AD00DE
:1005080031082C07860032082D3D87000108AE000F
:100518002E08A50001308731B02782310130200034
:10052800B1070030B23D0130FA070030FB3D320818
:10053800803AAC002B08803A2C02031DA52A2A0811
:100548003102031CA82AA92A442A20003008A40042
:100558002F08A3008531FC258231103008000330B4
:1005680072067304031DB92ABA2AD12A20000C1670
:10057800C330F600CD30890BBF2AF60BBF2A000026
:10058800EF30F600760820008C05C330F600CD3039
:10059800890BCC2AF60BCC2A0000023072067304B1
:1005A800031DD72AD82AEF2A20008C15C330F6005D
:1005B800CD30890BDD2AF60BDD2A0000F730F60076
:1005C800760820008C05C330F600CD30890BEA2A66
:1005D800F60BEA2A000072037304031DF42AF52AB5
:1005E8000C2B20000C15C330F600CD30890BFA2AED
:1005F800F60BFA2A0000FB30F600760820008C057E
:10060800C330F600CD30890B072BF60B072B000003
:10061800FF30F407FF30F53D740A031D172B750AE8
:10062800031D172B182BB32A080011302000B00027
:100638003008B3008731E62783312000B000B101CC
:100648003008B100B0013008B5003108B600873174
:10065800E62783312000B000B1013008B507310822
:10066800B63D8731E62783312000B0003008B4005A
:100678008731E6278331203A0319432B442B4E2B2D
:1006880001302000D7070030D83D15308F3188273A
:100698008331792B14308F318827833146302000FD
:1006A8003406031D582B592B642B3608A90035082E
:1006B800A8008531442583312000B0003008B300FC
:1006C80045303406031D692B6A2B752B3608A400A8
:1006D8003508A3008531C02583312000B0003008DB
:1006E800B30033088F318827833108008731E62724
:1006F80083312000B800B9013808B900B8013808BA
:10070800BD003908BE008731E62783312000B800D4
:10071800B9013808BD073908BE3D8731E62783315E
:100728002000B8003808BC0046303C06031D9D2B4D
:100738009E2BA62B3E08B4003D08B30087312A271C
:100748008331D72B45303C06031DAB2BAC2BD32B69
:100758003E08B3003D08B2008431C1248331200033
:10076800B8003808BB008731E6278331203A031DDB
:10077800BE2BBF2BC92B14308F3188278331200023
:100788003B088F3188278331D72B01302000D707CA
:100798000030D83D15308F3188278331D72B113061
:1007A8008F318827833108008731E6278331203A43
:1007B8000319DF2BE02BEA2B01302000D70700308C
:1007C800D83D15308F3188278331262C14308F314E
:1007D800882783312000A001A101A20130308F3188
:1007E800D32783312000A3002308A50025088F31D3
:1007F800882783312000A001A101A10AA20130307D
:100808008F31D32783312000A3002308A6002608B0
:100818008F31882783312000A0010230A3002308EC
:10082800A100A20130308F31D32783312000A400EA
:100838002408A70027088F318827833110308F318B
:10084800882783310800F400F501F601F70101302B
:10085800F2007608073C890A322CF235890B312CD4
:10086800720874050319392C3A2C3D2C20008E1679
:10087800422CDF30F200720820008E058E152130E0
:10088800890B442C000020000E1E4B2C4C2C592C9C
:100898000130F2007608073C890A532CF235890B9F
:1008A800522C7208F3007308F504F730F20072084E
:1008B8008E052130890B5E2C00000130F6070030D0
:1008C800F73D00307702083003197602031C6D2CBF
:1008D8006E2C2B2CDF30F200720820008E05750874
:1008E800080020002808F5002708F4008631FE26B5
:1008F80084310030F200F3008F31B52784312000B5
:10090800B001B101AF2C30082507AE003108263DF3
:10091800AF002F08A9002908A0002E08AA002A085D
:10092800A100F030AB002130AC0030082B07860066
:1009380031082C3D87000108AD002D08A200C03009
:100948008F31D32784314B30890BA82C01302000FC
:10095800B0070030B13D28083102031DB52C270827
:100968003002031CB82CB92C872C0130F20000305F
:10097800F3008F31B527843108007A352000B400A0
:100988007B0DB5003308B7003208B60033085202B1
:10099800031DD02C320851020318D32CD42CEE2C72
:1009A8000130D7070030D83D1130032D3508A60097
:1009B8003408A5002030A7000030A8008431752431
:1009C800843120302000B4070030B53D2030B60215
:1009D8000030B73B003037022130031936020318C4
:1009E800F62CF72CDA2C3508A6003408A5003708B1
:1009F800A8003608A7008431752484311030080017
:100A08000130873174278531FD302000A300230889
:100A180021008E058F318327853182302000A30085
:100A2800DD30890B152DA30B152D003200308731D1
:100A380074278531A630890B1F2D0032013087318C
:100A48007427853102302000A4004530A300A93066
:100A5800890B2C2DA30B2C2DA40B2C2D00325330DD
:100A68002000A3002308A000A101A201AC308F310F
:100A7800D327853101302000D9000030DA00080082
:100A88002000AD01AE01732D7B082000A4007A0878
:100A9800A30000308F31E82785312000AA002A08FA
:100AA800AB002B088F31882785317B082000A400F4
:100AB8007A08A30001308F31E82785312000AA0089
:100AC8002A08AC002C088F31882785310130FA07B5
:100AD8000030FB3D02302000AD070030AE3D2E084F
:100AE800803AAA002908803A2A02031D7D2D280889
:100AF8002D02031C802D812D482D10300800203038
:100B080020004F065004031D8A2D8B2D922DF030A6
:100B18007A05F200FF307B05F300BF2D40304F0609
:100B28005004031D982D992DA02DE0307A05F20070
:100B3800FF307B05F300BF2D80304F065004031DA6
:100B4800A62DA72DAE2DC0307A05F200FF307B050B
:100B5800F300BF2D50034F04031DB32DB42DBB2D3F
:100B680080307A05F200FF307B05F300BF2D7B084B
:100B7800F3007A08F20008007A352000A9007B0DFE
:100B8800AA00AE01AF01EC2D20002E082907AC0009
:100B98002F082A3DAD002D08A5002508A0002C0827
:100BA800A6002608A100FF30A7002708A200A03051
:100BB8008F31D32785312000A8002808AB002B08E7
:100BC8008F318827853101302000AE070030AF3DD6
:100BD8002F08803AA5002408803A2502031DF62D27
:100BE80023082E02031CF92DFA2DC82D10300800F9
:100BF8000030F200F3008F31B5278531200024083A
:100C0800A5002508A0002308A6002608A100A20127
:100C18004C308F31D32785312000A701A801073038
:100C28002000A5007D30890B172EA50B172E01304B
:100C38002000A7070030A83D2808803AA50080308A
:100C48002502031D292E1E302702031C2C2E2D2EB3
:100C5800132E0130F2000030F3008F31B5278531B3
:100C680008008F31C4278631EF30F700770821005C
:100C78008C050330F2000030F3000230F40000303D
:100C8800F5008231B3228631F730F700770821006A
:100C98008C050230F2000030F3000230F40000301E
:100CA800F5008231B3228631FB30F7007708210046
:100CB8008C050130F2000030F3000230F4000030FF
:100CC800F5008231B322863108000430F400003088
:100CD800F5008631FE268631F03086002130870007
:100CE800413101082000A5002508A000F030860049
:100CF8002130870042310108A6002608A100F03003
:100D080086002130870043310108A7002708A20088
:100D1800F03086002130870001088F31D3278631D3
:100D28002000A8002808F90079088731542786315F
:100D38000800F700B82E0230873154278631CE2EAE
:100D48000130873154278631CE2E1230873154270F
:100D58008631CE2E5330873154278631CE2E00303F
:100D6800873154278631CE2E7708F500F6017608AC
:100D7800003A0319C02EB32E7508803A03199F2E26
:100D8800013A0319A42E033A0319A92E113A03199B
:100D9800AE2EB32E0800863135268631C0302000AD
:100DA800C30043088B04200059085A040319DD2E98
:100DB800DE2EE02E0C16E42EEF30C30043088C051F
:100DC800570858040319E92EEA2EEC2E8C15F02E3C
:100DD800F730C30043088C058F3191278631003ADC
:100DE8000319F72EF82ED72E813145218631D72EBB
:100DF80080311F28F601F7011A2F8731E62786313F
:100E08002000A000F030A1002130A20076082107C0
:100E1800A3007708223DA400230886002408870041
:100E2800200881000130F6070030F73D7708803A46
:100E38002000A0007508803A2002031D252F7408A1
:100E48007602031C282F292F012F080020003408C0
:100E5800F5003308F4008631FE2687318731E6270E
:100E68008731203A031D392F3A2F4A2F14308F31FA
:100E78008827873120003408AB003308AA00823164
:100E8800382287318F3188278731532F013020004E
:100E9800D7070030D83D15308F31882787310800B3
:100EA800F4008731E6278731203A031D5C2F5D2F38
:100EB8006A2F14308F318827873174088F3188273B
:100EC800873110308F3188278731732F0130200008
:100ED800D7070030D83D15308F3188278731080073
:100EE800F30073080319792F7A2F802F20005B08ED
:100EF800031D7F2F802F8B2F7308031D842F852FB1
:100F08008D2F20005B08031D8A2F8B2F8D2F8E14A9
:100F1800922FFD30F200720820008E050800F601BD
:100F2800F701A42F7308760784007408773D8500BD
:100F380000088F31882787310130F6070030F73DE8
:100F48007308760784007408773D85001200031D36
:100F5800AE2FAF2F962F0800F90020002408A60016
:100F68002608A0002308A7002708A1002508A80034
:100F78002808A2007908A9000230A935FF3E031D00
:100F8800C12F2935403E8F31D3278731080087315B
:100F9800E6278731203A031DD22FD32FDC2F1430B8
:100FA8008F318827873110308F3188278731E52F97
:100FB80001302000D7070030D83D15308F31882701
:100FC800873108008F3191278731003A0319ED2FB7
:100FD800EE2FE62F20005C08F03E860087012230C5
:100FE800873D0108F2007208F3000130F200720830
:060FF800DC07730808008D
:101EFE00023024009500080021008E120E168E115D
:101F0E000800F20023009E1C8D2F8E2F892F720841
:101F1E009A00080020005D085C060319972F982F81
:101F2E009A2F01309B2F0030080064008001013190
:101F3E000130FE020030FF3B7F087E04031D9D2F03
:101F4E0000348F317F278F310130873174278F31E5
:101F5E0021008E142000D901DA01080072087304E2
:101F6E000319BA2FBB2FBE2F20000C16C32FEF3034
:101F7E00F400740820008C050800C030F2007208CE
:101F8E0021008E04243023009E0090309D000A30E4
:101F9E009B00210091160800F80078088431272450
:101FAE008F3120002008843127248F312000210812
:101FBE00843127248F3120002208843127248F3149
:101FCE000800F90020002408A5002508A000230819
:101FDE00A6002608A100A2017908A7000230A735A5
:101FEE00FF3E031DF62F2735203E8F31D3278F312D
:101FFE00080041345634523420344934533450346A
:02200E0000349C
:020000040001F9
:08000000FF3FFF3FFF3FFF3F00
:04000E00A23FFF3ED0
:00000001FF
