:100000000C948A000C94A7000C94A7000C94A700F1
:100010000C94A7000C94A7000C94A7000C94A700C4
:100020000C94A7000C94A7000C94A7000C94A700B4
:100030000C94A7000C94A7000C94A7000C94A700A4
:100040000C94A7000C94A7000C94A9000C94A70092
:100050000C94A7000C94A7000C94A7000C94A70084
:100060000C94A7000C94A7009C05A905A905A90557
:10007000A905A905A905A905A905A905A905A90510
:10008000A905A905A905A9051F052605A905A9050D
:10009000A905A905A905A905A905A905A905A905F0
:1000A000A905A905A905A905A90542054705A905A9
:1000B000A9055005A905A905A905A905A905A90529
:1000C000A905A905A905A90557059005A905A9052B
:1000D000A90562058D05A905A905A905A905A90513
:1000E000A905A905A905A9057B058205A905A905F5
:1000F0008705A905A905A905A905A905A905A905B2
:10010000A905A905A905A905A905A905A905A9057F
:100110008A05990511241FBECFEFD8E0DEBFCDBF01
:1001200011E0A0E0B1E0ECE2FCE002C005900D922D
:10013000A830B107D9F723E0A8E0B1E001C01D92D3
:10014000A432B207E1F70E94CC000C9414060C9480
:1001500000001F920F920FB60F9211248F939F935E
:10016000EF93FF939091C6008091C0008C7159F479
:10017000E0910901F0E0EE5DFE4F9083809109016E
:100180008F5F80930901FF91EF919F918F910F9065
:100190000FBE0F901F9018950E94300178948091A7
:1001A0000B01882311F0449A01C0449880910D01FD
:1001B000882311F0439A01C043980E945701882375
:1001C00071F30E941205EBCF83309105A9F4449A94
:1001D0002FEF36E741E0215030404040E1F700C0CA
:1001E000000044982FEF36E741E021503040404076
:1001F000E1F700C000002FC082309105A9F4439AB6
:100200002FEF36E741E0215030404040E1F700C099
:10021000000043982FEF36E741E021503040404046
:10022000E1F700C0000017C081309105A1F4429AA7
:100230002FEF36E741E0215030404040E1F700C069
:10024000000042982FEF36E741E021503040404017
:10025000E1F700C000006150710908F0B5CF0895C2
:100260000E94E9053C9A62E070E083E090E00E9421
:10027000E4003B9A62E070E082E090E00E94E400DB
:100280003A9A62E070E081E090E00E94E400089514
:10029000882329F080910A01882339F004C08091D5
:1002A0000A01811102C0419A089541980895209150
:1002B00009019091080181E0291301C080E00895AF
:1002C0000E9457018823E1F3E0910801F0E0EE5D20
:1002D000FE4F8081909108019F5F909308010895DF
:1002E0000F931F93CF93DF93181619065CF4C2E2A5
:1002F000D2E08C010E5D1D4F0E9460018993C017F2
:10030000D107D1F7DF91CF911F910F910895892BDC
:1003100011F0449A0895449808951F93CF93DF9362
:10032000162FD42FC22F0E94E305812F0E94E305D0
:100330008D2F0E94E3058C2F0E94E305DF91CF9162
:100340001F9108950E946001803239F484E10E9477
:10035000F70580E10E94F705089580910D019091C5
:100360000E01019690930E0180930D0185E10E948C
:10037000F7050895CF93C82F0E946001803251F491
:1003800084E10E94F7058C2F0E94F70580E10E940E
:10039000F7050CC080910D0190910E01019690938C
:1003A0000E0180930D0185E10E94F705CF9108951C
:1003B000813869F018F4803831F015C0823859F06E
:1003C000833969F010C082E00E94BA01089581E08B
:1003D0000E94BA01089582E10E94BA01089583E55E
:1003E0000E94BA01089580E00E94BA0108950F9317
:1003F0001F93E2E2F2E08081AFE0B1E08C93918163
:1004000011969C931197928112969C9312979381C7
:1004100013969C931397948114969C9314979581AB
:1004200015969C931597968116969C93169797818F
:1004300017969C931797908518969C9318972285EA
:1004400030E0322F22279385290F311D1A963C93D5
:100450002E931997248530E0322F22279585290F76
:10046000311D1C963C932E931B97268530E0322F2E
:1004700022279785290F311D1E963C932E931D9799
:10048000408950E060E070E0762F652F542F4427BC
:100490009189490F511D611D711DBA0155274427CE
:1004A000028910E0102F0027012E000C220B330BC5
:1004B000400F511F621F731F9389490F511D611D0A
:1004C000711D1F964D935D936D937C93529791E0B0
:1004D000803E08F490E090930A011F910F910895D7
:1004E00081E00E944801399A60E083E00E94BE05E5
:1004F0002FEF89EF90E0215080409040E1F700C05D
:10050000000080E00E9448018FE891E00197F1F738
:1005100000C0000081E00E9448019FEF20E782E0D8
:10052000915020408040E1F700C0000020E040E012
:1005300063E58CEA0E948D0181E090E090930C01CC
:1005400080930B0108950E94DF0581E00E9448011D
:10055000399810920C0110920B01089584E090E0FC
:100560000E947001E2E2F2E0238142816181808198
:100570000E948D010E94BA010895242F880F880FD0
:10058000880F462F672F805C0E948D010895CF93BE
:10059000DF93D82FC92F80E090E00E94870120E0F0
:1005A0004D2F6C2F8CE40E948D018EE190E0EFE9DD
:1005B000FFE03197F1F700C000000197C1F781E03B
:1005C00090E00E948701DF91CF91089580911A01F8
:1005D00090911B018032910531F48091220390911A
:1005E0002303807F08958034910531F480912203A4
:1005F00090912303807E08958038910531F4809195
:10060000220390912303807C08958115914031F459
:100610008091220390912303807808958091220392
:10062000909123030895EF92FF920F931F93CF931E
:10063000DF937C010E94E6028C011E141F048CF5DE
:10064000C0E0D0E00E94E6028017910731F0C801B7
:100650000E94C7020E94E6028C01FE01EE5DFD4F82
:100660006091220370912303408180E00E94BD02CB
:100670002296FE01EF5DFD4F6091220370912303EE
:10068000408181E00E94BD0220912203309123032A
:100690002F5F3F4F3093230320932203CE15DF05B6
:1006A0008CF2C8010E94C70280E1DF91CF911F91B7
:1006B0000F91FF90EF900895CF93DF93EC010E948C
:1006C00070010E946001803249F484E10E94F705C4
:1006D000CE010E9413030E94F7050CC080910D010A
:1006E00090910E01019690930E0180930D0185E18A
:1006F0000E94F705DF91CF910895EF92FF920F933B
:100700001F93CF93DF93EC017B01CB010E9470011B
:1007100080E090E00E948701E114F10499F002E288
:1007200012E0EC0EFD1EF80121918F014C2F6D2F70
:1007300080EC0E948D01F0EFFA95F1F72196CE152D
:10074000DF0589F781E090E00E94870180E1DF9179
:10075000CF911F910F91FF90EF900895CF92DF926C
:10076000EF92FF920F931F93CF93DF937C01C09082
:100770002203D090230380911C0190911D018E15BE
:100780009F0538F0CC0CDD1C81E2E816F10460F422
:100790003CC080910D0190910E01019690930E0145
:1007A00080930D0181E136C08701E60160E270E0CF
:1007B000CE010E947D03A09600521109013211055D
:1007C000A8F7970121523109369527953295229540
:1007D0002F7023273F70232780E2C80ED11CC90148
:1007E000880F991F82959295907F9827807F9827F0
:1007F000C80ED91E80E2E81AF10840EE4203C0019B
:10080000439F900D1124E80EF91EB701C6010E9406
:100810007D0380E1DF91CF911F910F91FF90EF90C9
:10082000DF90CF900895CF93DF930E946001C82F8F
:10083000D0E0DC2FCC270E946001C80FD11D0E94A0
:100840006001863421F4CE010E945C0321C085340E
:10085000E1F4CE010E94AE03C82F0E9460018032F5
:1008600039F484E10E94F7058C2F0E94F70510C02F
:1008700080910D0190910E01019690930E0180934D
:100880000D0185E10E94F70503C081E10E94F70593
:10089000DF91CF910895462F880F880F880F20E0B1
:1008A000672F805E0E948D0108950F931F93CF9351
:1008B000DF93181619061CF58C01C0E0D0E060919A
:1008C00022037091230380E00E944B040E94F705ED
:1008D000609122037091230381E00E944B040E94E7
:1008E000F70520912203309123032F5F3F4F309370
:1008F0002303209322032296C017D10704F380E13B
:10090000DF91CF911F910F9108950F931F93CF9374
:10091000DF93C0912203D0912303CC0FDD1F181663
:1009200019067CF48C010C0F1D1F2FEF4C2F6D2F1F
:1009300080EA0E948D010E94F7052196C017D10719
:10094000A1F780E1DF91CF911F910F9108951F933F
:10095000CF93DF930E946001C82F0E946001D82FBF
:100960000E946001182F0E946001803269F080911E
:100970000D0190910E01019690930E0180930D014F
:1009800085E10E94F7051AC02C2F30E0322F222774
:10099000C9018D0F911DEC0184E10E94F705163409
:1009A00021F4CE010E94550407C0153421F4CE0174
:1009B0000E94850401C081E10E94F705DF91CF917B
:1009C0001F9108950E946001803269F080910D01AD
:1009D00090910E01019690930E0180930D0185E197
:1009E0000E94F705089584E10E94F70520E040E0A9
:1009F00060E080E30E948D010E94F70520E041E065
:100A000060E080E30E948D010E94F70520E042E053
:100A100060E080E30E948D010E94F70580E10E9462
:100A2000F70508950E94600190E0FC01B097E6355B
:100A3000F10508F08EC0EC5CFF4F0C940E0610928E
:100A40000E0110920D010E94A20108950E94600102
:100A5000803259F484E10E94F70580E091E00E9421
:100A6000FF0580E10E94F705089580910D019091A6
:100A70000E01019690930E0180930D0185E10E9475
:100A8000F70508950E9460010E94D801089584E14D
:100A900090E00E9470010E94F7010E94A201089557
:100AA00085E090E00E9470010E94A201089580916B
:100AB0000B0190910C01892B11F40E9470020E948D
:100AC000A20108950E94600190E090932303809317
:100AD00022030E94600190E0982F88272091220332
:100AE00030912303820F931F90932303809322035B
:100AF0000E94A20108950E9460010E9460010E946C
:100B0000A20108950E9460010E94A20108950E941E
:100B1000130408950E94A70408950E94AE02089548
:100B200010920E0110920D010E94A3020E94A201D8
:100B300008950E94E204089580910D0190910E01A4
:100B4000019690930E0180930D0185E10E94F705B7
:100B5000089580910D0190910E01019690930E01E0
:100B600080930D010E946001803221F482E10E9495
:100B7000F705089585E10E94F7050895843048F04F
:100B80009BEA899F912D11249695292F220F920F70
:100B9000891B22982A9A94B1986294B994B19B7E49
:100BA00094B9662321F09DB591609DBD03C09DB5AC
:100BB0009E7F9DBD8CBD8CB580658CBD08958CB528
:100BC0008F7B8CBD08958EBD0DB407FEFDCF8EB515
:100BD00008951092C00088E98093C10086E0809358
:100BE000C2001092C50080E18093C4000895E0EC3B
:100BF000F0E0908195FFFDCF8093C6000895CF93DC
:100C0000DF93EC018881882331F021960E94F7055B
:100C100089918111FBCFDF91CF910895EE0FFF1FD6
:0C0C20000590F491E02D0994F894FFCFAA
:080C2C004156522049535000CB
:00000001FF
